:100000000C9434000C9451000C9451000C94510049
:100010000C9451000C9451000C9451000C9451001C
:100020000C9451000C9478000C9451000C945100E5
:100030000C9451000C9451000C94A6000C945100A7
:100040000C9451000C9451000C94FF000C9451003E
:100050000C9451000C9451000C9451000C945100DC
:100060000C9451000C94510011241FBECFEFD8E026
:10007000DEBFCDBF11E0A0E0B1E0ECE2F3E002C0F2
:1000800005900D92A030B107D9F721E0A0E0B1E0D2
:1000900001C01D92A332B207E1F70E9469000C94DF
:1000A00094010C94000088E184B988E085B9089532
:1000B00082E084BD95E095BD99E297BDE0EBF0E06C
:1000C000108297E0918380936E0081E080937000AE
:1000D000089560E970ED83E090E00E94E40081E023
:1000E00090E00E946C010E9453000E945800FFCFD4
:1000F0001F920F920FB60F9211242F933F934F939D
:100100005F936F937F938F939F93AF93BF93EF937F
:10011000FF935E9A8FEC97E00197F1F700C0000023
:100120005E9882E090E00E946C01FF91EF91BF9198
:10013000AF919F918F917F916F915F914F913F917F
:100140002F910F900FBE0F901F9018951F920F9236
:100150000FB60F9211242F933F934F935F936F939A
:100160007F938F939F93AF93BF93EF93FF935F9A88
:100170008FEC97E00197F1F700C000005F9883E0F3
:1001800090E00E946C01FF91EF91BF91AF919F9120
:100190008F917F916F915F914F913F912F910F9030
:1001A0000FBE0F901F901895F894809102018F5FF9
:1001B0008093020108958091020181508093020191
:1001C000811101C0789408959B01AC0160E472E450
:1001D0008FE090E00E94720121503109E0ECF0E0E4
:1001E0003583248388E181838EE082830895E0EC67
:1001F000F0E0908195FFFDCF8093C60008951F9297
:100200000F920FB60F9211242F938F939F93AF935A
:10021000BF93EF93FF93E0ECF0E019C0268180914B
:10022000010190E001968F719078992324F4019751
:10023000806E9F6F019690910001891741F0A09107
:100240000101B0E0AD5FBE4F2C938093010180812E
:10025000882324F3FF91EF91BF91AF919F918F91EC
:100260002F910F900FBE0F901F901895CF93C82F0E
:10027000892F0E94F7008C2F0E94F700CF910895DC
:10028000EF92FF920F931F93CF93DF93EC01E62E33
:10029000F72E142F0E94D40085EA0E94F700812FC8
:1002A000886A0E94F700CE010E943601CFEFC10F8D
:1002B00011164CF40E2D1F2DF80181918F010E9413
:1002C000F700C150C8F70E94DB00DF91CF911F916A
:1002D0000F91FF90EF90089540E060E070E00E9481
:1002E00040010895A1E21A2EAA1BBB1BFD010DC0FF
:1002F000AA1FBB1FEE1FFF1FA217B307E407F507D6
:1003000020F0A21BB30BE40BF50B661F771F881FB1
:10031000991F1A9469F760957095809590959B0147
:0C032000AC01BD01CF010895F894FFCF9F
:00000001FF
